{
  "_format": "hh-sol-artifact-1",
  "contractName": "MediChain",
  "sourceName": "contracts/MediChain.sol",
  "abi": [
    {
      "inputs": [
        {
          "internalType": "address",
          "name": "admin",
          "type": "address"
        }
      ],
      "stateMutability": "nonpayable",
      "type": "constructor"
    },
    {
      "inputs": [],
      "name": "AccessControlBadConfirmation",
      "type": "error"
    },
    {
      "inputs": [
        {
          "internalType": "address",
          "name": "account",
          "type": "address"
        },
        {
          "internalType": "bytes32",
          "name": "neededRole",
          "type": "bytes32"
        }
      ],
      "name": "AccessControlUnauthorizedAccount",
      "type": "error"
    },
    {
      "anonymous": false,
      "inputs": [
        {
          "indexed": true,
          "internalType": "string",
          "name": "batchId",
          "type": "string"
        },
        {
          "indexed": true,
          "internalType": "address",
          "name": "manufacturer",
          "type": "address"
        },
        {
          "indexed": false,
          "internalType": "string",
          "name": "pointer",
          "type": "string"
        }
      ],
      "name": "BatchCreated",
      "type": "event"
    },
    {
      "anonymous": false,
      "inputs": [
        {
          "indexed": true,
          "internalType": "string",
          "name": "batchId",
          "type": "string"
        },
        {
          "indexed": true,
          "internalType": "address",
          "name": "from",
          "type": "address"
        },
        {
          "indexed": true,
          "internalType": "address",
          "name": "to",
          "type": "address"
        },
        {
          "indexed": false,
          "internalType": "string",
          "name": "pointer",
          "type": "string"
        }
      ],
      "name": "BatchTransferred",
      "type": "event"
    },
    {
      "anonymous": false,
      "inputs": [
        {
          "indexed": true,
          "internalType": "string",
          "name": "batchId",
          "type": "string"
        },
        {
          "indexed": true,
          "internalType": "address",
          "name": "pharmacy",
          "type": "address"
        },
        {
          "indexed": false,
          "internalType": "string",
          "name": "prescriptionPointer",
          "type": "string"
        }
      ],
      "name": "PrescriptionAdded",
      "type": "event"
    },
    {
      "anonymous": false,
      "inputs": [
        {
          "indexed": true,
          "internalType": "bytes32",
          "name": "role",
          "type": "bytes32"
        },
        {
          "indexed": true,
          "internalType": "bytes32",
          "name": "previousAdminRole",
          "type": "bytes32"
        },
        {
          "indexed": true,
          "internalType": "bytes32",
          "name": "newAdminRole",
          "type": "bytes32"
        }
      ],
      "name": "RoleAdminChanged",
      "type": "event"
    },
    {
      "anonymous": false,
      "inputs": [
        {
          "indexed": true,
          "internalType": "bytes32",
          "name": "role",
          "type": "bytes32"
        },
        {
          "indexed": true,
          "internalType": "address",
          "name": "account",
          "type": "address"
        },
        {
          "indexed": true,
          "internalType": "address",
          "name": "sender",
          "type": "address"
        }
      ],
      "name": "RoleGranted",
      "type": "event"
    },
    {
      "anonymous": false,
      "inputs": [
        {
          "indexed": true,
          "internalType": "bytes32",
          "name": "role",
          "type": "bytes32"
        },
        {
          "indexed": true,
          "internalType": "address",
          "name": "account",
          "type": "address"
        },
        {
          "indexed": true,
          "internalType": "address",
          "name": "sender",
          "type": "address"
        }
      ],
      "name": "RoleRevoked",
      "type": "event"
    },
    {
      "inputs": [],
      "name": "DEFAULT_ADMIN_ROLE",
      "outputs": [
        {
          "internalType": "bytes32",
          "name": "",
          "type": "bytes32"
        }
      ],
      "stateMutability": "view",
      "type": "function"
    },
    {
      "inputs": [],
      "name": "DISTRIBUTOR_ROLE",
      "outputs": [
        {
          "internalType": "bytes32",
          "name": "",
          "type": "bytes32"
        }
      ],
      "stateMutability": "view",
      "type": "function"
    },
    {
      "inputs": [],
      "name": "MANUFACTURER_ROLE",
      "outputs": [
        {
          "internalType": "bytes32",
          "name": "",
          "type": "bytes32"
        }
      ],
      "stateMutability": "view",
      "type": "function"
    },
    {
      "inputs": [],
      "name": "PHARMACY_ROLE",
      "outputs": [
        {
          "internalType": "bytes32",
          "name": "",
          "type": "bytes32"
        }
      ],
      "stateMutability": "view",
      "type": "function"
    },
    {
      "inputs": [
        {
          "internalType": "string",
          "name": "batchId",
          "type": "string"
        },
        {
          "internalType": "string",
          "name": "prescriptionPointer",
          "type": "string"
        }
      ],
      "name": "addPrescription",
      "outputs": [],
      "stateMutability": "nonpayable",
      "type": "function"
    },
    {
      "inputs": [
        {
          "internalType": "string",
          "name": "batchId",
          "type": "string"
        },
        {
          "internalType": "string",
          "name": "pointer",
          "type": "string"
        }
      ],
      "name": "createBatch",
      "outputs": [],
      "stateMutability": "nonpayable",
      "type": "function"
    },
    {
      "inputs": [
        {
          "internalType": "string",
          "name": "batchId",
          "type": "string"
        }
      ],
      "name": "getCurrentOwner",
      "outputs": [
        {
          "internalType": "address",
          "name": "",
          "type": "address"
        }
      ],
      "stateMutability": "view",
      "type": "function"
    },
    {
      "inputs": [
        {
          "internalType": "string",
          "name": "batchId",
          "type": "string"
        }
      ],
      "name": "getEvents",
      "outputs": [
        {
          "components": [
            {
              "internalType": "string",
              "name": "eventType",
              "type": "string"
            },
            {
              "internalType": "address",
              "name": "actor",
              "type": "address"
            },
            {
              "internalType": "uint256",
              "name": "timestamp",
              "type": "uint256"
            },
            {
              "internalType": "string",
              "name": "pointer",
              "type": "string"
            }
          ],
          "internalType": "struct MediChain.EventEntry[]",
          "name": "",
          "type": "tuple[]"
        }
      ],
      "stateMutability": "view",
      "type": "function"
    },
    {
      "inputs": [
        {
          "internalType": "bytes32",
          "name": "role",
          "type": "bytes32"
        }
      ],
      "name": "getRoleAdmin",
      "outputs": [
        {
          "internalType": "bytes32",
          "name": "",
          "type": "bytes32"
        }
      ],
      "stateMutability": "view",
      "type": "function"
    },
    {
      "inputs": [
        {
          "internalType": "bytes32",
          "name": "role",
          "type": "bytes32"
        },
        {
          "internalType": "address",
          "name": "account",
          "type": "address"
        }
      ],
      "name": "grantRole",
      "outputs": [],
      "stateMutability": "nonpayable",
      "type": "function"
    },
    {
      "inputs": [
        {
          "internalType": "bytes32",
          "name": "role",
          "type": "bytes32"
        },
        {
          "internalType": "address",
          "name": "account",
          "type": "address"
        }
      ],
      "name": "hasRole",
      "outputs": [
        {
          "internalType": "bool",
          "name": "",
          "type": "bool"
        }
      ],
      "stateMutability": "view",
      "type": "function"
    },
    {
      "inputs": [
        {
          "internalType": "bytes32",
          "name": "role",
          "type": "bytes32"
        },
        {
          "internalType": "address",
          "name": "callerConfirmation",
          "type": "address"
        }
      ],
      "name": "renounceRole",
      "outputs": [],
      "stateMutability": "nonpayable",
      "type": "function"
    },
    {
      "inputs": [
        {
          "internalType": "bytes32",
          "name": "role",
          "type": "bytes32"
        },
        {
          "internalType": "address",
          "name": "account",
          "type": "address"
        }
      ],
      "name": "revokeRole",
      "outputs": [],
      "stateMutability": "nonpayable",
      "type": "function"
    },
    {
      "inputs": [
        {
          "internalType": "bytes4",
          "name": "interfaceId",
          "type": "bytes4"
        }
      ],
      "name": "supportsInterface",
      "outputs": [
        {
          "internalType": "bool",
          "name": "",
          "type": "bool"
        }
      ],
      "stateMutability": "view",
      "type": "function"
    },
    {
      "inputs": [
        {
          "internalType": "string",
          "name": "batchId",
          "type": "string"
        },
        {
          "internalType": "address",
          "name": "to",
          "type": "address"
        },
        {
          "internalType": "string",
          "name": "pointer",
          "type": "string"
        }
      ],
      "name": "transferBatch",
      "outputs": [],
      "stateMutability": "nonpayable",
      "type": "function"
    }
  ],
  "bytecode": "0x60806040523480156200001157600080fd5b506040516200250738038062002507833981810160405281019062000037919062000233565b6200004c6000801b826200005460201b60201c565b505062000265565b60006200006883836200015760201b60201c565b6200014c57600160008085815260200190815260200160002060000160008473ffffffffffffffffffffffffffffffffffffffff1673ffffffffffffffffffffffffffffffffffffffff16815260200190815260200160002060006101000a81548160ff021916908315150217905550620000e8620001c160201b60201c565b73ffffffffffffffffffffffffffffffffffffffff168273ffffffffffffffffffffffffffffffffffffffff16847f2f8788117e7eff1d82e926ec794901d17c78024a50270940304540a733656f0d60405160405180910390a46001905062000151565b600090505b92915050565b600080600084815260200190815260200160002060000160008373ffffffffffffffffffffffffffffffffffffffff1673ffffffffffffffffffffffffffffffffffffffff16815260200190815260200160002060009054906101000a900460ff16905092915050565b600033905090565b600080fd5b600073ffffffffffffffffffffffffffffffffffffffff82169050919050565b6000620001fb82620001ce565b9050919050565b6200020d81620001ee565b81146200021957600080fd5b50565b6000815190506200022d8162000202565b92915050565b6000602082840312156200024c576200024b620001c9565b5b60006200025c848285016200021c565b91505092915050565b61229280620002756000396000f3fe608060405234801561001057600080fd5b50600436106100f55760003560e01c806392b8f02111610097578063d55a772d11610066578063d55a772d1461026e578063f0bd87cc1461029e578063f0c58ea7146102bc578063f80e1a3c146102da576100f5565b806392b8f021146101fa578063965288b014610216578063a217fddf14610234578063d547741f14610252576100f5565b80632f2ff15d116100d35780632f2ff15d1461017657806334601b2c1461019257806336568abe146101ae57806391d14854146101ca576100f5565b806301ffc9a7146100fa578063248a9ca31461012a5780632c07aceb1461015a575b600080fd5b610114600480360381019061010f91906115ef565b61030a565b6040516101219190611637565b60405180910390f35b610144600480360381019061013f9190611688565b610384565b60405161015191906116c4565b60405180910390f35b610174600480360381019061016f9190611744565b6103a3565b005b610190600480360381019061018b9190611823565b6106fa565b005b6101ac60048036038101906101a79190611863565b61071c565b005b6101c860048036038101906101c39190611823565b610a79565b005b6101e460048036038101906101df9190611823565b610af4565b6040516101f19190611637565b60405180910390f35b610214600480360381019061020f9190611744565b610b5e565b005b61021e610f96565b60405161022b91906116c4565b60405180910390f35b61023c610fba565b60405161024991906116c4565b60405180910390f35b61026c60048036038101906102679190611823565b610fc1565b005b610288600480360381019061028391906118f8565b610fe3565b6040516102959190611954565b60405180910390f35b6102a6611087565b6040516102b391906116c4565b60405180910390f35b6102c46110ab565b6040516102d191906116c4565b60405180910390f35b6102f460048036038101906102ef91906118f8565b6110cf565b6040516103019190611b53565b60405180910390f35b60007f7965db0b000000000000000000000000000000000000000000000000000000007bffffffffffffffffffffffffffffffffffffffffffffffffffffffff1916827bffffffffffffffffffffffffffffffffffffffffffffffffffffffff1916148061037d575061037c826112d3565b5b9050919050565b6000806000838152602001908152602001600020600101549050919050565b6103cd7f2f3a5455f35aeca177ac653592f277fbe2fbafef01081a2030451bb2fb41c91d33610af4565b61040c576040517f08c379a000000000000000000000000000000000000000000000000000000000815260040161040390611bd2565b60405180910390fd5b600060018585604051610420929190611c31565b908152602001604051809103902090508060030160009054906101000a900460ff16610481576040517f08c379a000000000000000000000000000000000000000000000000000000000815260040161047890611c96565b60405180910390fd5b3373ffffffffffffffffffffffffffffffffffffffff168160010160009054906101000a900473ffffffffffffffffffffffffffffffffffffffff1673ffffffffffffffffffffffffffffffffffffffff1614610513576040517f08c379a000000000000000000000000000000000000000000000000000000000815260040161050a90611d02565b60405180910390fd5b60028585604051610525929190611c31565b908152602001604051809103902060405180608001604052806040518060400160405280601181526020017f507265736372697074696f6e416464656400000000000000000000000000000081525081526020013373ffffffffffffffffffffffffffffffffffffffff16815260200142815260200185858080601f016020809104026020016040519081016040528093929190818152602001838380828437600081840152601f19601f82011690508083019250505050505050815250908060018154018082558091505060019003906000526020600020906004020160009091909190915060008201518160000190816106219190611f5d565b5060208201518160010160006101000a81548173ffffffffffffffffffffffffffffffffffffffff021916908373ffffffffffffffffffffffffffffffffffffffff1602179055506040820151816002015560608201518160030190816106889190611f5d565b5050503373ffffffffffffffffffffffffffffffffffffffff1685856040516106b2929190611c31565b60405180910390207f28c69f1bc4509dc2bb4696b62600196b12179cf6dbdea41e5e702a393c1e7bdb85856040516106eb92919061205c565b60405180910390a35050505050565b61070382610384565b61070c8161133d565b6107168383611351565b50505050565b600060018686604051610730929190611c31565b908152602001604051809103902090508060030160009054906101000a900460ff16610791576040517f08c379a000000000000000000000000000000000000000000000000000000000815260040161078890611c96565b60405180910390fd5b3373ffffffffffffffffffffffffffffffffffffffff168160010160009054906101000a900473ffffffffffffffffffffffffffffffffffffffff1673ffffffffffffffffffffffffffffffffffffffff1614610823576040517f08c379a000000000000000000000000000000000000000000000000000000000815260040161081a90611d02565b60405180910390fd5b838160010160006101000a81548173ffffffffffffffffffffffffffffffffffffffff021916908373ffffffffffffffffffffffffffffffffffffffff160217905550828282600201918261087992919061208b565b506002868660405161088c929190611c31565b908152602001604051809103902060405180608001604052806040518060400160405280601081526020017f42617463685472616e736665727265640000000000000000000000000000000081525081526020013373ffffffffffffffffffffffffffffffffffffffff16815260200142815260200185858080601f016020809104026020016040519081016040528093929190818152602001838380828437600081840152601f19601f82011690508083019250505050505050815250908060018154018082558091505060019003906000526020600020906004020160009091909190915060008201518160000190816109889190611f5d565b5060208201518160010160006101000a81548173ffffffffffffffffffffffffffffffffffffffff021916908373ffffffffffffffffffffffffffffffffffffffff1602179055506040820151816002015560608201518160030190816109ef9190611f5d565b5050508373ffffffffffffffffffffffffffffffffffffffff163373ffffffffffffffffffffffffffffffffffffffff168787604051610a30929190611c31565b60405180910390207f597407412534329060f07f8c1dc55f0ce808513375ba5f52e757e263c7f46a2a8686604051610a6992919061205c565b60405180910390a4505050505050565b610a81611442565b73ffffffffffffffffffffffffffffffffffffffff168173ffffffffffffffffffffffffffffffffffffffff1614610ae5576040517f6697b23200000000000000000000000000000000000000000000000000000000815260040160405180910390fd5b610aef828261144a565b505050565b600080600084815260200190815260200160002060000160008373ffffffffffffffffffffffffffffffffffffffff1673ffffffffffffffffffffffffffffffffffffffff16815260200190815260200160002060009054906101000a900460ff16905092915050565b610b887feefb95e842a3287179d933b4460be539a1d5af11aa8b325bb45c5c8dc92de4ed33610af4565b610bc7576040517f08c379a0000000000000000000000000000000000000000000000000000000008152600401610bbe906121a7565b60405180910390fd5b60018484604051610bd9929190611c31565b908152602001604051809103902060030160009054906101000a900460ff1615610c38576040517f08c379a0000000000000000000000000000000000000000000000000000000008152600401610c2f90612213565b60405180910390fd5b604051806080016040528085858080601f016020809104026020016040519081016040528093929190818152602001838380828437600081840152601f19601f8201169050808301925050505050505081526020013373ffffffffffffffffffffffffffffffffffffffff16815260200183838080601f016020809104026020016040519081016040528093929190818152602001838380828437600081840152601f19601f8201169050808301925050505050505081526020016001151581525060018585604051610d0c929190611c31565b90815260200160405180910390206000820151816000019081610d2f9190611f5d565b5060208201518160010160006101000a81548173ffffffffffffffffffffffffffffffffffffffff021916908373ffffffffffffffffffffffffffffffffffffffff1602179055506040820151816002019081610d8c9190611f5d565b5060608201518160030160006101000a81548160ff02191690831515021790555090505060028484604051610dc2929190611c31565b908152602001604051809103902060405180608001604052806040518060400160405280600c81526020017f426174636843726561746564000000000000000000000000000000000000000081525081526020013373ffffffffffffffffffffffffffffffffffffffff16815260200142815260200184848080601f016020809104026020016040519081016040528093929190818152602001838380828437600081840152601f19601f8201169050808301925050505050505081525090806001815401808255809150506001900390600052602060002090600402016000909190919091506000820151816000019081610ebe9190611f5d565b5060208201518160010160006101000a81548173ffffffffffffffffffffffffffffffffffffffff021916908373ffffffffffffffffffffffffffffffffffffffff160217905550604082015181600201556060820151816003019081610f259190611f5d565b5050503373ffffffffffffffffffffffffffffffffffffffff168484604051610f4f929190611c31565b60405180910390207f89d70c8a8021bd93ee523b84d6230cc26ffec652bb74b4756556975b880397d08484604051610f8892919061205c565b60405180910390a350505050565b7feefb95e842a3287179d933b4460be539a1d5af11aa8b325bb45c5c8dc92de4ed81565b6000801b81565b610fca82610384565b610fd38161133d565b610fdd838361144a565b50505050565b60008060018484604051610ff8929190611c31565b908152602001604051809103902090508060030160009054906101000a900460ff16611059576040517f08c379a000000000000000000000000000000000000000000000000000000000815260040161105090611c96565b60405180910390fd5b8060010160009054906101000a900473ffffffffffffffffffffffffffffffffffffffff1691505092915050565b7ffbd454f36a7e1a388bd6fc3ab10d434aa4578f811acbbcf33afb1c697486313c81565b7f2f3a5455f35aeca177ac653592f277fbe2fbafef01081a2030451bb2fb41c91d81565b6060600283836040516110e3929190611c31565b9081526020016040518091039020805480602002602001604051908101604052809291908181526020016000905b828210156112c7578382906000526020600020906004020160405180608001604052908160008201805461114490611d80565b80601f016020809104026020016040519081016040528092919081815260200182805461117090611d80565b80156111bd5780601f10611192576101008083540402835291602001916111bd565b820191906000526020600020905b8154815290600101906020018083116111a057829003601f168201915b505050505081526020016001820160009054906101000a900473ffffffffffffffffffffffffffffffffffffffff1673ffffffffffffffffffffffffffffffffffffffff1673ffffffffffffffffffffffffffffffffffffffff1681526020016002820154815260200160038201805461123690611d80565b80601f016020809104026020016040519081016040528092919081815260200182805461126290611d80565b80156112af5780601f10611284576101008083540402835291602001916112af565b820191906000526020600020905b81548152906001019060200180831161129257829003601f168201915b50505050508152505081526020019060010190611111565b50505050905092915050565b60007f01ffc9a7000000000000000000000000000000000000000000000000000000007bffffffffffffffffffffffffffffffffffffffffffffffffffffffff1916827bffffffffffffffffffffffffffffffffffffffffffffffffffffffff1916149050919050565b61134e81611349611442565b61153c565b50565b600061135d8383610af4565b61143757600160008085815260200190815260200160002060000160008473ffffffffffffffffffffffffffffffffffffffff1673ffffffffffffffffffffffffffffffffffffffff16815260200190815260200160002060006101000a81548160ff0219169083151502179055506113d4611442565b73ffffffffffffffffffffffffffffffffffffffff168273ffffffffffffffffffffffffffffffffffffffff16847f2f8788117e7eff1d82e926ec794901d17c78024a50270940304540a733656f0d60405160405180910390a46001905061143c565b600090505b92915050565b600033905090565b60006114568383610af4565b1561153157600080600085815260200190815260200160002060000160008473ffffffffffffffffffffffffffffffffffffffff1673ffffffffffffffffffffffffffffffffffffffff16815260200190815260200160002060006101000a81548160ff0219169083151502179055506114ce611442565b73ffffffffffffffffffffffffffffffffffffffff168273ffffffffffffffffffffffffffffffffffffffff16847ff6391f5c32d9c69d2a47ea670b442974b53935d1edc7fd64eb21e047a839171b60405160405180910390a460019050611536565b600090505b92915050565b6115468282610af4565b6115895780826040517fe2517d3f000000000000000000000000000000000000000000000000000000008152600401611580929190612233565b60405180910390fd5b5050565b600080fd5b600080fd5b60007fffffffff0000000000000000000000000000000000000000000000000000000082169050919050565b6115cc81611597565b81146115d757600080fd5b50565b6000813590506115e9816115c3565b92915050565b6000602082840312156116055761160461158d565b5b6000611613848285016115da565b91505092915050565b60008115159050919050565b6116318161161c565b82525050565b600060208201905061164c6000830184611628565b92915050565b6000819050919050565b61166581611652565b811461167057600080fd5b50565b6000813590506116828161165c565b92915050565b60006020828403121561169e5761169d61158d565b5b60006116ac84828501611673565b91505092915050565b6116be81611652565b82525050565b60006020820190506116d960008301846116b5565b92915050565b600080fd5b600080fd5b600080fd5b60008083601f840112611704576117036116df565b5b8235905067ffffffffffffffff811115611721576117206116e4565b5b60208301915083600182028301111561173d5761173c6116e9565b5b9250929050565b6000806000806040858703121561175e5761175d61158d565b5b600085013567ffffffffffffffff81111561177c5761177b611592565b5b611788878288016116ee565b9450945050602085013567ffffffffffffffff8111156117ab576117aa611592565b5b6117b7878288016116ee565b925092505092959194509250565b600073ffffffffffffffffffffffffffffffffffffffff82169050919050565b60006117f0826117c5565b9050919050565b611800816117e5565b811461180b57600080fd5b50565b60008135905061181d816117f7565b92915050565b6000806040838503121561183a5761183961158d565b5b600061184885828601611673565b92505060206118598582860161180e565b9150509250929050565b60008060008060006060868803121561187f5761187e61158d565b5b600086013567ffffffffffffffff81111561189d5761189c611592565b5b6118a9888289016116ee565b955095505060206118bc8882890161180e565b935050604086013567ffffffffffffffff8111156118dd576118dc611592565b5b6118e9888289016116ee565b92509250509295509295909350565b6000806020838503121561190f5761190e61158d565b5b600083013567ffffffffffffffff81111561192d5761192c611592565b5b611939858286016116ee565b92509250509250929050565b61194e816117e5565b82525050565b60006020820190506119696000830184611945565b92915050565b600081519050919050565b600082825260208201905092915050565b6000819050602082019050919050565b600081519050919050565b600082825260208201905092915050565b60005b838110156119d55780820151818401526020810190506119ba565b60008484015250505050565b6000601f19601f8301169050919050565b60006119fd8261199b565b611a0781856119a6565b9350611a178185602086016119b7565b611a20816119e1565b840191505092915050565b611a34816117e5565b82525050565b6000819050919050565b611a4d81611a3a565b82525050565b60006080830160008301518482036000860152611a7082826119f2565b9150506020830151611a856020860182611a2b565b506040830151611a986040860182611a44565b5060608301518482036060860152611ab082826119f2565b9150508091505092915050565b6000611ac98383611a53565b905092915050565b6000602082019050919050565b6000611ae98261196f565b611af3818561197a565b935083602082028501611b058561198b565b8060005b85811015611b415784840389528151611b228582611abd565b9450611b2d83611ad1565b925060208a01995050600181019050611b09565b50829750879550505050505092915050565b60006020820190508181036000830152611b6d8184611ade565b905092915050565b600082825260208201905092915050565b7f4e6f7420706861726d6163790000000000000000000000000000000000000000600082015250565b6000611bbc600c83611b75565b9150611bc782611b86565b602082019050919050565b60006020820190508181036000830152611beb81611baf565b9050919050565b600081905092915050565b82818337600083830152505050565b6000611c188385611bf2565b9350611c25838584611bfd565b82840190509392505050565b6000611c3e828486611c0c565b91508190509392505050565b7f4261746368206d697373696e6700000000000000000000000000000000000000600082015250565b6000611c80600d83611b75565b9150611c8b82611c4a565b602082019050919050565b60006020820190508181036000830152611caf81611c73565b9050919050565b7f4e6f74206f776e65720000000000000000000000000000000000000000000000600082015250565b6000611cec600983611b75565b9150611cf782611cb6565b602082019050919050565b60006020820190508181036000830152611d1b81611cdf565b9050919050565b7f4e487b7100000000000000000000000000000000000000000000000000000000600052604160045260246000fd5b7f4e487b7100000000000000000000000000000000000000000000000000000000600052602260045260246000fd5b60006002820490506001821680611d9857607f821691505b602082108103611dab57611daa611d51565b5b50919050565b60008190508160005260206000209050919050565b60006020601f8301049050919050565b600082821b905092915050565b600060088302611e137fffffffffffffffffffffffffffffffffffffffffffffffffffffffffffffffff82611dd6565b611e1d8683611dd6565b95508019841693508086168417925050509392505050565b6000819050919050565b6000611e5a611e55611e5084611a3a565b611e35565b611a3a565b9050919050565b6000819050919050565b611e7483611e3f565b611e88611e8082611e61565b848454611de3565b825550505050565b600090565b611e9d611e90565b611ea8818484611e6b565b505050565b5b81811015611ecc57611ec1600082611e95565b600181019050611eae565b5050565b601f821115611f1157611ee281611db1565b611eeb84611dc6565b81016020851015611efa578190505b611f0e611f0685611dc6565b830182611ead565b50505b505050565b600082821c905092915050565b6000611f3460001984600802611f16565b1980831691505092915050565b6000611f4d8383611f23565b9150826002028217905092915050565b611f668261199b565b67ffffffffffffffff811115611f7f57611f7e611d22565b5b611f898254611d80565b611f94828285611ed0565b600060209050601f831160018114611fc75760008415611fb5578287015190505b611fbf8582611f41565b865550612027565b601f198416611fd586611db1565b60005b82811015611ffd57848901518255600182019150602085019450602081019050611fd8565b8683101561201a5784890151612016601f891682611f23565b8355505b6001600288020188555050505b505050505050565b600061203b8385611b75565b9350612048838584611bfd565b612051836119e1565b840190509392505050565b6000602082019050818103600083015261207781848661202f565b90509392505050565b600082905092915050565b6120958383612080565b67ffffffffffffffff8111156120ae576120ad611d22565b5b6120b88254611d80565b6120c3828285611ed0565b6000601f8311600181146120f257600084156120e0578287013590505b6120ea8582611f41565b865550612152565b601f19841661210086611db1565b60005b8281101561212857848901358255600182019150602085019450602081019050612103565b868310156121455784890135612141601f891682611f23565b8355505b6001600288020188555050505b50505050505050565b7f4e6f74206d616e75666163747572657200000000000000000000000000000000600082015250565b6000612191601083611b75565b915061219c8261215b565b602082019050919050565b600060208201905081810360008301526121c081612184565b9050919050565b7f4261746368206578697374730000000000000000000000000000000000000000600082015250565b60006121fd600c83611b75565b9150612208826121c7565b602082019050919050565b6000602082019050818103600083015261222c816121f0565b9050919050565b60006040820190506122486000830185611945565b61225560208301846116b5565b939250505056fea26469706673582212205038df9a7ee11703d94a3fb6859a27570cd690c7bb9db6ea70227fae4617d08564736f6c63430008180033",
  "linkReferences": {},
  "deployedLinkReferences": {}
}